{
  "contractName": "High_low_2",
  "abi": [
    {
      "constant": true,
      "inputs": [
        {
          "name": "",
          "type": "uint256"
        }
      ],
      "name": "bet_creator",
      "outputs": [
        {
          "name": "",
          "type": "address"
        }
      ],
      "payable": false,
      "stateMutability": "view",
      "type": "function"
    },
    {
      "constant": true,
      "inputs": [],
      "name": "name",
      "outputs": [
        {
          "name": "",
          "type": "string"
        }
      ],
      "payable": false,
      "stateMutability": "view",
      "type": "function"
    },
    {
      "constant": true,
      "inputs": [
        {
          "name": "",
          "type": "uint256"
        }
      ],
      "name": "bet_status_map",
      "outputs": [
        {
          "name": "is_bet_stopped",
          "type": "bool"
        },
        {
          "name": "is_result_published",
          "type": "bool"
        },
        {
          "name": "final_option",
          "type": "uint256"
        }
      ],
      "payable": false,
      "stateMutability": "view",
      "type": "function"
    },
    {
      "constant": true,
      "inputs": [],
      "name": "decimals",
      "outputs": [
        {
          "name": "",
          "type": "uint8"
        }
      ],
      "payable": false,
      "stateMutability": "view",
      "type": "function"
    },
    {
      "constant": true,
      "inputs": [
        {
          "name": "",
          "type": "address"
        },
        {
          "name": "",
          "type": "uint256"
        }
      ],
      "name": "bet_details_map",
      "outputs": [
        {
          "name": "bet_id",
          "type": "uint256"
        },
        {
          "name": "team_1",
          "type": "string"
        },
        {
          "name": "team_2",
          "type": "string"
        },
        {
          "name": "team_selecetd",
          "type": "bool"
        },
        {
          "name": "start_time",
          "type": "uint256"
        },
        {
          "name": "expiry_time",
          "type": "uint256"
        }
      ],
      "payable": false,
      "stateMutability": "view",
      "type": "function"
    },
    {
      "constant": true,
      "inputs": [
        {
          "name": "",
          "type": "address"
        },
        {
          "name": "",
          "type": "uint256"
        }
      ],
      "name": "better_betted_bets",
      "outputs": [
        {
          "name": "",
          "type": "uint256"
        }
      ],
      "payable": false,
      "stateMutability": "view",
      "type": "function"
    },
    {
      "constant": true,
      "inputs": [
        {
          "name": "",
          "type": "uint256"
        }
      ],
      "name": "low_betters",
      "outputs": [
        {
          "name": "",
          "type": "uint256"
        }
      ],
      "payable": false,
      "stateMutability": "view",
      "type": "function"
    },
    {
      "constant": true,
      "inputs": [],
      "name": "_totalSupply",
      "outputs": [
        {
          "name": "",
          "type": "uint256"
        }
      ],
      "payable": false,
      "stateMutability": "view",
      "type": "function"
    },
    {
      "constant": true,
      "inputs": [
        {
          "name": "",
          "type": "uint256"
        }
      ],
      "name": "high_betters",
      "outputs": [
        {
          "name": "",
          "type": "uint256"
        }
      ],
      "payable": false,
      "stateMutability": "view",
      "type": "function"
    },
    {
      "constant": true,
      "inputs": [
        {
          "name": "",
          "type": "uint256"
        }
      ],
      "name": "bet_tokens_for_low",
      "outputs": [
        {
          "name": "",
          "type": "uint256"
        }
      ],
      "payable": false,
      "stateMutability": "view",
      "type": "function"
    },
    {
      "constant": true,
      "inputs": [
        {
          "name": "",
          "type": "uint256"
        }
      ],
      "name": "broker_addresses",
      "outputs": [
        {
          "name": "",
          "type": "address"
        }
      ],
      "payable": false,
      "stateMutability": "view",
      "type": "function"
    },
    {
      "constant": true,
      "inputs": [
        {
          "name": "",
          "type": "uint256"
        },
        {
          "name": "",
          "type": "uint256"
        }
      ],
      "name": "betters_of_bet_id",
      "outputs": [
        {
          "name": "",
          "type": "address"
        }
      ],
      "payable": false,
      "stateMutability": "view",
      "type": "function"
    },
    {
      "constant": true,
      "inputs": [
        {
          "name": "",
          "type": "uint256"
        }
      ],
      "name": "bet_tokens_for_high",
      "outputs": [
        {
          "name": "",
          "type": "uint256"
        }
      ],
      "payable": false,
      "stateMutability": "view",
      "type": "function"
    },
    {
      "constant": true,
      "inputs": [],
      "name": "symbol",
      "outputs": [
        {
          "name": "",
          "type": "string"
        }
      ],
      "payable": false,
      "stateMutability": "view",
      "type": "function"
    },
    {
      "constant": true,
      "inputs": [
        {
          "name": "",
          "type": "uint256"
        }
      ],
      "name": "index_of_broker_bet",
      "outputs": [
        {
          "name": "",
          "type": "uint256"
        }
      ],
      "payable": false,
      "stateMutability": "view",
      "type": "function"
    },
    {
      "constant": true,
      "inputs": [
        {
          "name": "",
          "type": "address"
        },
        {
          "name": "",
          "type": "uint256"
        }
      ],
      "name": "is_exit",
      "outputs": [
        {
          "name": "",
          "type": "bool"
        }
      ],
      "payable": false,
      "stateMutability": "view",
      "type": "function"
    },
    {
      "constant": true,
      "inputs": [
        {
          "name": "",
          "type": "address"
        }
      ],
      "name": "is_better",
      "outputs": [
        {
          "name": "",
          "type": "bool"
        }
      ],
      "payable": false,
      "stateMutability": "view",
      "type": "function"
    },
    {
      "constant": true,
      "inputs": [
        {
          "name": "",
          "type": "address"
        }
      ],
      "name": "broker_created_bets",
      "outputs": [
        {
          "name": "",
          "type": "uint256"
        }
      ],
      "payable": false,
      "stateMutability": "view",
      "type": "function"
    },
    {
      "constant": true,
      "inputs": [
        {
          "name": "",
          "type": "address"
        },
        {
          "name": "",
          "type": "uint256"
        }
      ],
      "name": "game_id_map_better",
      "outputs": [
        {
          "name": "option",
          "type": "bool"
        },
        {
          "name": "betted_tokens",
          "type": "uint256"
        }
      ],
      "payable": false,
      "stateMutability": "view",
      "type": "function"
    },
    {
      "constant": true,
      "inputs": [
        {
          "name": "",
          "type": "address"
        }
      ],
      "name": "is_broker",
      "outputs": [
        {
          "name": "",
          "type": "bool"
        }
      ],
      "payable": false,
      "stateMutability": "view",
      "type": "function"
    },
    {
      "constant": true,
      "inputs": [],
      "name": "_bet_id",
      "outputs": [
        {
          "name": "",
          "type": "uint256"
        }
      ],
      "payable": false,
      "stateMutability": "view",
      "type": "function"
    },
    {
      "inputs": [],
      "payable": true,
      "stateMutability": "payable",
      "type": "constructor"
    },
    {
      "anonymous": false,
      "inputs": [
        {
          "indexed": false,
          "name": "indexed_from",
          "type": "address"
        },
        {
          "indexed": false,
          "name": "indexed_to",
          "type": "address"
        },
        {
          "indexed": false,
          "name": "_value",
          "type": "uint256"
        }
      ],
      "name": "Transfer",
      "type": "event"
    },
    {
      "anonymous": false,
      "inputs": [
        {
          "indexed": false,
          "name": "indexed_owner",
          "type": "address"
        },
        {
          "indexed": false,
          "name": "indexed_spender",
          "type": "address"
        },
        {
          "indexed": false,
          "name": "_value",
          "type": "uint256"
        }
      ],
      "name": "Approval",
      "type": "event"
    },
    {
      "anonymous": false,
      "inputs": [
        {
          "indexed": false,
          "name": "_sender",
          "type": "address"
        },
        {
          "indexed": false,
          "name": "_receiver",
          "type": "address"
        },
        {
          "indexed": false,
          "name": "_transfer_amount",
          "type": "uint256"
        }
      ],
      "name": "Transfer_amount",
      "type": "event"
    },
    {
      "constant": true,
      "inputs": [],
      "name": "totalSupply",
      "outputs": [
        {
          "name": "",
          "type": "uint256"
        }
      ],
      "payable": false,
      "stateMutability": "view",
      "type": "function"
    },
    {
      "constant": true,
      "inputs": [
        {
          "name": "_owner",
          "type": "address"
        }
      ],
      "name": "balanceOf",
      "outputs": [
        {
          "name": "",
          "type": "uint256"
        }
      ],
      "payable": false,
      "stateMutability": "view",
      "type": "function"
    },
    {
      "constant": false,
      "inputs": [
        {
          "name": "_to",
          "type": "address"
        },
        {
          "name": "_value",
          "type": "uint256"
        }
      ],
      "name": "transfer",
      "outputs": [
        {
          "name": "",
          "type": "bool"
        }
      ],
      "payable": true,
      "stateMutability": "payable",
      "type": "function"
    },
    {
      "constant": false,
      "inputs": [
        {
          "name": "_from",
          "type": "address"
        },
        {
          "name": "_to",
          "type": "address"
        },
        {
          "name": "_value",
          "type": "uint256"
        }
      ],
      "name": "transferFrom",
      "outputs": [
        {
          "name": "",
          "type": "bool"
        }
      ],
      "payable": true,
      "stateMutability": "payable",
      "type": "function"
    },
    {
      "constant": false,
      "inputs": [
        {
          "name": "_spender",
          "type": "address"
        },
        {
          "name": "_value",
          "type": "uint256"
        }
      ],
      "name": "approve",
      "outputs": [
        {
          "name": "",
          "type": "bool"
        }
      ],
      "payable": true,
      "stateMutability": "payable",
      "type": "function"
    },
    {
      "constant": true,
      "inputs": [
        {
          "name": "_owner",
          "type": "address"
        },
        {
          "name": "_spender",
          "type": "address"
        }
      ],
      "name": "allowance",
      "outputs": [
        {
          "name": "",
          "type": "uint256"
        }
      ],
      "payable": false,
      "stateMutability": "view",
      "type": "function"
    },
    {
      "constant": false,
      "inputs": [],
      "name": "buy_token",
      "outputs": [
        {
          "name": "",
          "type": "bool"
        }
      ],
      "payable": true,
      "stateMutability": "payable",
      "type": "function"
    },
    {
      "constant": false,
      "inputs": [
        {
          "name": "tokens_to_exchange_in_wei",
          "type": "uint256"
        }
      ],
      "name": "exchange_token",
      "outputs": [
        {
          "name": "",
          "type": "bool"
        }
      ],
      "payable": true,
      "stateMutability": "payable",
      "type": "function"
    },
    {
      "constant": true,
      "inputs": [],
      "name": "account_token_balance",
      "outputs": [
        {
          "name": "",
          "type": "uint256"
        }
      ],
      "payable": false,
      "stateMutability": "view",
      "type": "function"
    },
    {
      "constant": true,
      "inputs": [],
      "name": "get_better_betted_bets_length",
      "outputs": [
        {
          "name": "",
          "type": "uint256"
        }
      ],
      "payable": false,
      "stateMutability": "view",
      "type": "function"
    },
    {
      "constant": false,
      "inputs": [],
      "name": "add_broker",
      "outputs": [
        {
          "name": "",
          "type": "bool"
        }
      ],
      "payable": true,
      "stateMutability": "payable",
      "type": "function"
    },
    {
      "constant": true,
      "inputs": [],
      "name": "check_broker",
      "outputs": [
        {
          "name": "",
          "type": "bool"
        }
      ],
      "payable": false,
      "stateMutability": "view",
      "type": "function"
    },
    {
      "constant": true,
      "inputs": [],
      "name": "length_of_broker_addresses",
      "outputs": [
        {
          "name": "",
          "type": "uint256"
        }
      ],
      "payable": false,
      "stateMutability": "view",
      "type": "function"
    },
    {
      "constant": true,
      "inputs": [
        {
          "name": "index",
          "type": "uint256"
        }
      ],
      "name": "get_broker_address",
      "outputs": [
        {
          "name": "",
          "type": "address"
        }
      ],
      "payable": false,
      "stateMutability": "view",
      "type": "function"
    },
    {
      "constant": true,
      "inputs": [],
      "name": "check_better",
      "outputs": [
        {
          "name": "",
          "type": "bool"
        }
      ],
      "payable": false,
      "stateMutability": "view",
      "type": "function"
    },
    {
      "constant": false,
      "inputs": [
        {
          "name": "_team_1",
          "type": "string"
        },
        {
          "name": "_team_2",
          "type": "string"
        },
        {
          "name": "_team_selecetd",
          "type": "bool"
        },
        {
          "name": "_start_time",
          "type": "uint256"
        },
        {
          "name": "_expiry_time",
          "type": "uint256"
        }
      ],
      "name": "broker_set_game",
      "outputs": [
        {
          "name": "",
          "type": "bool"
        }
      ],
      "payable": true,
      "stateMutability": "payable",
      "type": "function"
    },
    {
      "constant": false,
      "inputs": [
        {
          "name": "bet_id",
          "type": "uint256"
        },
        {
          "name": "_choice",
          "type": "uint256"
        },
        {
          "name": "_bet_tokens_in_wei",
          "type": "uint256"
        }
      ],
      "name": "betting",
      "outputs": [
        {
          "name": "",
          "type": "bool"
        }
      ],
      "payable": true,
      "stateMutability": "payable",
      "type": "function"
    },
    {
      "constant": false,
      "inputs": [
        {
          "name": "bet_id",
          "type": "uint256"
        }
      ],
      "name": "broker_stop_bet",
      "outputs": [
        {
          "name": "",
          "type": "bool"
        }
      ],
      "payable": true,
      "stateMutability": "payable",
      "type": "function"
    },
    {
      "constant": false,
      "inputs": [
        {
          "name": "bet_id",
          "type": "uint256"
        },
        {
          "name": "_increase_tokens_in_wei",
          "type": "uint256"
        }
      ],
      "name": "better_increase_bet_tokens",
      "outputs": [
        {
          "name": "",
          "type": "bool"
        }
      ],
      "payable": true,
      "stateMutability": "payable",
      "type": "function"
    },
    {
      "constant": false,
      "inputs": [
        {
          "name": "bet_id",
          "type": "uint256"
        }
      ],
      "name": "better_exit_bet",
      "outputs": [
        {
          "name": "",
          "type": "bool"
        }
      ],
      "payable": true,
      "stateMutability": "payable",
      "type": "function"
    },
    {
      "constant": false,
      "inputs": [
        {
          "name": "bet_id",
          "type": "uint256"
        },
        {
          "name": "result_options",
          "type": "uint256"
        }
      ],
      "name": "broker_setting_result_and_distribute_money",
      "outputs": [
        {
          "name": "",
          "type": "bool"
        }
      ],
      "payable": true,
      "stateMutability": "payable",
      "type": "function"
    }
  ],
  "bytecode": "0x60806040526040805190810160405280600381526020017f484c540000000000000000000000000000000000000000000000000000000000815250600090805190602001906200005192919062000129565b506040805190810160405280600e81526020017f48696768204c6f7720546f6b656e000000000000000000000000000000000000815250600190805190602001906200009f92919062000129565b506012600260006101000a81548160ff021916908360ff160217905550600260009054906101000a900460ff1660ff16600a0a6298968002600381905550600354600460003073ffffffffffffffffffffffffffffffffffffffff1673ffffffffffffffffffffffffffffffffffffffff16815260200190815260200160002081905550620001d8565b828054600181600116156101000203166002900490600052602060002090601f016020900481019282601f106200016c57805160ff19168380011785556200019d565b828001600101855582156200019d579182015b828111156200019c5782518255916020019190600101906200017f565b5b509050620001ac9190620001b0565b5090565b620001d591905b80821115620001d1576000816000905550600101620001b7565b5090565b90565b613d4580620001e86000396000f300608060405260043610610203576000357c0100000000000000000000000000000000000000000000000000000000900463ffffffff168062ada0f21461020857806306fdde0314610275578063095ea7b31461030557806311761ed21461035d57806316dcd4cc1461037f57806318160ddd146103ae578063182d7957146103d95780631ddaa15b1461043057806323b872dd14610472578063313ce567146104ea5780633442586a1461051b578063388424fc1461054657806339472f691461069857806339d200e1146106f95780633eaaf86b1461073a57806340721d1b1461076557806342950e64146107a657806361d3a8d7146107d157806363b0e93b146108125780637028403e1461087f57806370a08231146108f6578063760c883c1461094d578063798424361461097c5780637cc75c3d146109b457806381c77736146109f55780638328bb4f14610a3757806383d8cfc014610a8357806395d89b4114610aa55780639682f17714610b3557806398e8c09514610b6d5780639ea6ca1a14610bae578063a9059cbb14610c13578063ab13610014610c6b578063afb06dc314610cc6578063bc9b159b14610d1d578063d55964ad14610d48578063dd62ed3e14610db4578063e098849614610e2b578063e2605e5314610e98578063e98ba0c714610ef3578063ed23f5f414610f1e578063faadb0ff14610f56575b600080fd5b34801561021457600080fd5b5061023360048036038101908080359060200190929190505050611030565b604051808273ffffffffffffffffffffffffffffffffffffffff1673ffffffffffffffffffffffffffffffffffffffff16815260200191505060405180910390f35b34801561028157600080fd5b5061028a611063565b6040518080602001828103825283818151815260200191508051906020019080838360005b838110156102ca5780820151818401526020810190506102af565b50505050905090810190601f1680156102f75780820380516001836020036101000a031916815260200191505b509250505060405180910390f35b610343600480360381019080803573ffffffffffffffffffffffffffffffffffffffff16906020019092919080359060200190929190505050611101565b604051808215151515815260200191505060405180910390f35b61036561122d565b604051808215151515815260200191505060405180910390f35b34801561038b57600080fd5b5061039461131e565b604051808215151515815260200191505060405180910390f35b3480156103ba57600080fd5b506103c3611372565b6040518082815260200191505060405180910390f35b3480156103e557600080fd5b506104046004803603810190808035906020019092919050505061137c565b604051808415151515815260200183151515158152602001828152602001935050505060405180910390f35b61045860048036038101908080359060200190929190803590602001909291905050506113c0565b604051808215151515815260200191505060405180910390f35b6104d0600480360381019080803573ffffffffffffffffffffffffffffffffffffffff169060200190929190803573ffffffffffffffffffffffffffffffffffffffff169060200190929190803590602001909291905050506116ba565b604051808215151515815260200191505060405180910390f35b3480156104f657600080fd5b506104ff6118ea565b604051808260ff1660ff16815260200191505060405180910390f35b34801561052757600080fd5b506105306118fd565b6040518082815260200191505060405180910390f35b34801561055257600080fd5b50610591600480360381019080803573ffffffffffffffffffffffffffffffffffffffff16906020019092919080359060200190929190505050611947565b60405180878152602001806020018060200186151515158152602001858152602001848152602001838103835288818151815260200191508051906020019080838360005b838110156105f15780820151818401526020810190506105d6565b50505050905090810190601f16801561061e5780820380516001836020036101000a031916815260200191505b50838103825287818151815260200191508051906020019080838360005b8381101561065757808201518184015260208101905061063c565b50505050905090810190601f1680156106845780820380516001836020036101000a031916815260200191505b509850505050505050505060405180910390f35b3480156106a457600080fd5b506106e3600480360381019080803573ffffffffffffffffffffffffffffffffffffffff16906020019092919080359060200190929190505050611acd565b6040518082815260200191505060405180910390f35b34801561070557600080fd5b5061072460048036038101908080359060200190929190505050611afd565b6040518082815260200191505060405180910390f35b34801561074657600080fd5b5061074f611b15565b6040518082815260200191505060405180910390f35b34801561077157600080fd5b5061079060048036038101908080359060200190929190505050611b1b565b6040518082815260200191505060405180910390f35b3480156107b257600080fd5b506107bb611b33565b6040518082815260200191505060405180910390f35b3480156107dd57600080fd5b506107fc60048036038101908080359060200190929190505050611b43565b6040518082815260200191505060405180910390f35b34801561081e57600080fd5b5061083d60048036038101908080359060200190929190505050611b5b565b604051808273ffffffffffffffffffffffffffffffffffffffff1673ffffffffffffffffffffffffffffffffffffffff16815260200191505060405180910390f35b34801561088b57600080fd5b506108b46004803603810190808035906020019092919080359060200190929190505050611b99565b604051808273ffffffffffffffffffffffffffffffffffffffff1673ffffffffffffffffffffffffffffffffffffffff16815260200191505060405180910390f35b34801561090257600080fd5b50610937600480360381019080803573ffffffffffffffffffffffffffffffffffffffff169060200190929190505050611be6565b6040518082815260200191505060405180910390f35b34801561095957600080fd5b50610962611c2f565b604051808215151515815260200191505060405180910390f35b61099a60048036038101908080359060200190929190505050611c83565b604051808215151515815260200191505060405180910390f35b3480156109c057600080fd5b506109df60048036038101908080359060200190929190505050611d84565b6040518082815260200191505060405180910390f35b610a1d6004803603810190808035906020019092919080359060200190929190505050611d9c565b604051808215151515815260200191505060405180910390f35b610a6960048036038101908080359060200190929190803590602001909291908035906020019092919050505061280d565b604051808215151515815260200191505060405180910390f35b610a8b612db8565b604051808215151515815260200191505060405180910390f35b348015610ab157600080fd5b50610aba612dce565b6040518080602001828103825283818151815260200191508051906020019080838360005b83811015610afa578082015181840152602081019050610adf565b50505050905090810190601f168015610b275780820380516001836020036101000a031916815260200191505b509250505060405180910390f35b610b5360048036038101908080359060200190929190505050612e6c565b604051808215151515815260200191505060405180910390f35b348015610b7957600080fd5b50610b9860048036038101908080359060200190929190505050612ea6565b6040518082815260200191505060405180910390f35b348015610bba57600080fd5b50610bf9600480360381019080803573ffffffffffffffffffffffffffffffffffffffff16906020019092919080359060200190929190505050612ebe565b604051808215151515815260200191505060405180910390f35b610c51600480360381019080803573ffffffffffffffffffffffffffffffffffffffff16906020019092919080359060200190929190505050612eed565b604051808215151515815260200191505060405180910390f35b348015610c7757600080fd5b50610cac600480360381019080803573ffffffffffffffffffffffffffffffffffffffff16906020019092919050505061311c565b604051808215151515815260200191505060405180910390f35b348015610cd257600080fd5b50610d07600480360381019080803573ffffffffffffffffffffffffffffffffffffffff16906020019092919050505061313c565b6040518082815260200191505060405180910390f35b348015610d2957600080fd5b50610d32613154565b6040518082815260200191505060405180910390f35b348015610d5457600080fd5b50610d93600480360381019080803573ffffffffffffffffffffffffffffffffffffffff16906020019092919080359060200190929190505050613161565b60405180831515151581526020018281526020019250505060405180910390f35b348015610dc057600080fd5b50610e15600480360381019080803573ffffffffffffffffffffffffffffffffffffffff169060200190929190803573ffffffffffffffffffffffffffffffffffffffff16906020019092919050505061319f565b6040518082815260200191505060405180910390f35b348015610e3757600080fd5b50610e5660048036038101908080359060200190929190505050613226565b604051808273ffffffffffffffffffffffffffffffffffffffff1673ffffffffffffffffffffffffffffffffffffffff16815260200191505060405180910390f35b348015610ea457600080fd5b50610ed9600480360381019080803573ffffffffffffffffffffffffffffffffffffffff169060200190929190505050613269565b604051808215151515815260200191505060405180910390f35b348015610eff57600080fd5b50610f08613289565b6040518082815260200191505060405180910390f35b610f3c6004803603810190808035906020019092919050505061328f565b604051808215151515815260200191505060405180910390f35b611016600480360381019080803590602001908201803590602001908080601f0160208091040260200160405190810160405280939291908181526020018383808284378201915050505050509192919290803590602001908201803590602001908080601f016020809104026020016040519081016040528093929190818152602001838380828437820191505050505050919291929080351515906020019092919080359060200190929190803590602001909291905050506136d0565b604051808215151515815260200191505060405180910390f35b600d6020528060005260406000206000915054906101000a900473ffffffffffffffffffffffffffffffffffffffff1681565b60018054600181600116156101000203166002900480601f0160208091040260200160405190810160405280929190818152602001828054600181600116156101000203166002900480156110f95780601f106110ce576101008083540402835291602001916110f9565b820191906000526020600020905b8154815290600101906020018083116110dc57829003601f168201915b505050505081565b600081600560003373ffffffffffffffffffffffffffffffffffffffff1673ffffffffffffffffffffffffffffffffffffffff16815260200190815260200160002060008573ffffffffffffffffffffffffffffffffffffffff1673ffffffffffffffffffffffffffffffffffffffff168152602001908152602001600020819055507f8c5be1e5ebec7d5bd14f71427d1e84f3dd0314c0f7b2291e5b200ac8c7c3b925338484604051808473ffffffffffffffffffffffffffffffffffffffff1673ffffffffffffffffffffffffffffffffffffffff1681526020018373ffffffffffffffffffffffffffffffffffffffff1673ffffffffffffffffffffffffffffffffffffffff168152602001828152602001935050505060405180910390a16001905092915050565b600061123761131e565b15151561124357600080fd5b600661124d613154565b10151561125957600080fd5b60073390806001815401808255809150509060018203906000526020600020016000909192909190916101000a81548173ffffffffffffffffffffffffffffffffffffffff021916908373ffffffffffffffffffffffffffffffffffffffff160217905550506001600860003373ffffffffffffffffffffffffffffffffffffffff1673ffffffffffffffffffffffffffffffffffffffff16815260200190815260200160002060006101000a81548160ff0219169083151502179055506001905090565b6000600860003373ffffffffffffffffffffffffffffffffffffffff1673ffffffffffffffffffffffffffffffffffffffff16815260200190815260200160002060009054906101000a900460ff16905090565b6000600354905090565b60166020528060005260406000206000915090508060000160009054906101000a900460ff16908060000160019054906101000a900460ff16908060010154905083565b600080600e60003373ffffffffffffffffffffffffffffffffffffffff1673ffffffffffffffffffffffffffffffffffffffff16815260200190815260200160002060008581526020019081526020016000206001015411151561142357600080fd5b600015156016600085815260200190815260200160002060000160009054906101000a900460ff16151514151561145957600080fd5b42600a6000600d600087815260200190815260200160002060009054906101000a900473ffffffffffffffffffffffffffffffffffffffff1673ffffffffffffffffffffffffffffffffffffffff1673ffffffffffffffffffffffffffffffffffffffff1681526020019081526020016000206000600b6000878152602001908152602001600020548152602001908152602001600020600501541015151561150157600080fd5b6103e8820261150f33611be6565b1015151561151c57600080fd5b61152b33306103e885026116ba565b5081600e60003373ffffffffffffffffffffffffffffffffffffffff1673ffffffffffffffffffffffffffffffffffffffff16815260200190815260200160002060008581526020019081526020016000206001016000828254019250508190555060001515600e60003373ffffffffffffffffffffffffffffffffffffffff1673ffffffffffffffffffffffffffffffffffffffff168152602001908152602001600020600085815260200190815260200160002060000160009054906101000a900460ff1615151415611620578160116000858152602001908152602001600020600082825401925050819055506116b0565b60011515600e60003373ffffffffffffffffffffffffffffffffffffffff1673ffffffffffffffffffffffffffffffffffffffff168152602001908152602001600020600085815260200190815260200160002060000160009054906101000a900460ff16151514156116af578160126000858152602001908152602001600020600082825401925050819055505b5b6001905092915050565b600081600460008673ffffffffffffffffffffffffffffffffffffffff1673ffffffffffffffffffffffffffffffffffffffff168152602001908152602001600020541015801561170b5750600082115b151561171657600080fd5b61176882600460008773ffffffffffffffffffffffffffffffffffffffff1673ffffffffffffffffffffffffffffffffffffffff16815260200190815260200160002054613c3290919063ffffffff16565b600460008673ffffffffffffffffffffffffffffffffffffffff1673ffffffffffffffffffffffffffffffffffffffff168152602001908152602001600020819055506117fd82600460008673ffffffffffffffffffffffffffffffffffffffff1673ffffffffffffffffffffffffffffffffffffffff16815260200190815260200160002054613c5390919063ffffffff16565b600460008573ffffffffffffffffffffffffffffffffffffffff1673ffffffffffffffffffffffffffffffffffffffff168152602001908152602001600020819055507fddf252ad1be2c89b69c2b068fc378daa952ba7f163c4a11628f55a4df523b3ef848484604051808473ffffffffffffffffffffffffffffffffffffffff1673ffffffffffffffffffffffffffffffffffffffff1681526020018373ffffffffffffffffffffffffffffffffffffffff1673ffffffffffffffffffffffffffffffffffffffff168152602001828152602001935050505060405180910390a1600190509392505050565b600260009054906101000a900460ff1681565b6000601060003373ffffffffffffffffffffffffffffffffffffffff1673ffffffffffffffffffffffffffffffffffffffff16815260200190815260200160002080549050905090565b600a60205281600052604060002060205280600052604060002060009150915050806000015490806001018054600181600116156101000203166002900480601f016020809104026020016040519081016040528092919081815260200182805460018160011615610100020316600290048015611a065780601f106119db57610100808354040283529160200191611a06565b820191906000526020600020905b8154815290600101906020018083116119e957829003601f168201915b505050505090806002018054600181600116156101000203166002900480601f016020809104026020016040519081016040528092919081815260200182805460018160011615610100020316600290048015611aa45780601f10611a7957610100808354040283529160200191611aa4565b820191906000526020600020905b815481529060010190602001808311611a8757829003601f168201915b5050505050908060030160009054906101000a900460ff16908060040154908060050154905086565b601060205281600052604060002081815481101515611ae857fe5b90600052602060002001600091509150505481565b60136020528060005260406000206000915090505481565b60035481565b60146020528060005260406000206000915090505481565b6000611b3e33611be6565b905090565b60116020528060005260406000206000915090505481565b600781815481101515611b6a57fe5b906000526020600020016000915054906101000a900473ffffffffffffffffffffffffffffffffffffffff1681565b600f60205281600052604060002081815481101515611bb457fe5b906000526020600020016000915091509054906101000a900473ffffffffffffffffffffffffffffffffffffffff1681565b6000600460008373ffffffffffffffffffffffffffffffffffffffff1673ffffffffffffffffffffffffffffffffffffffff168152602001908152602001600020549050919050565b6000600960003373ffffffffffffffffffffffffffffffffffffffff1673ffffffffffffffffffffffffffffffffffffffff16815260200190815260200160002060009054906101000a900460ff16905090565b6000611c9433306103e885026116ba565b503373ffffffffffffffffffffffffffffffffffffffff166108fc839081150290604051600060405180830381858888f19350505050158015611cdb573d6000803e3d6000fd5b507fd51af916ec27930d708168315bc82401ecf73ab390083b9558a6fb4bba5cb09c303384604051808473ffffffffffffffffffffffffffffffffffffffff1673ffffffffffffffffffffffffffffffffffffffff1681526020018373ffffffffffffffffffffffffffffffffffffffff1673ffffffffffffffffffffffffffffffffffffffff168152602001828152602001935050505060405180910390a160019050919050565b60126020528060005260406000206000915090505481565b6000803373ffffffffffffffffffffffffffffffffffffffff16600d600086815260200190815260200160002060009054906101000a900473ffffffffffffffffffffffffffffffffffffffff1673ffffffffffffffffffffffffffffffffffffffff16141515611e0c57600080fd5b42600a6000600d600088815260200190815260200160002060009054906101000a900473ffffffffffffffffffffffffffffffffffffffff1673ffffffffffffffffffffffffffffffffffffffff1673ffffffffffffffffffffffffffffffffffffffff1681526020019081526020016000206000600b60008881526020019081526020016000205481526020019081526020016000206005015411151515611eb457600080fd5b600015156016600086815260200190815260200160002060000160019054906101000a900460ff161515141515611eea57600080fd5b600c8311158015611efc5750600a8310155b1515611f0757600080fd5b60016016600086815260200190815260200160002060000160016101000a81548160ff021916908315150217905550826016600086815260200190815260200160002060010181905550600f6000858152602001908152602001600020805490509050600c83141561213b575b6000811115612132576000600e6000600f600088815260200190815260200160002060018503815481101515611fa657fe5b9060005260206000200160009054906101000a900473ffffffffffffffffffffffffffffffffffffffff1673ffffffffffffffffffffffffffffffffffffffff1673ffffffffffffffffffffffffffffffffffffffff16815260200190815260200160002060008681526020019081526020016000206001015411156121245761212230600f60008781526020019081526020016000206001840381548110151561204d57fe5b9060005260206000200160009054906101000a900473ffffffffffffffffffffffffffffffffffffffff166103e8600e6000600f60008b8152602001908152602001600020600188038154811015156120a257fe5b9060005260206000200160009054906101000a900473ffffffffffffffffffffffffffffffffffffffff1673ffffffffffffffffffffffffffffffffffffffff1673ffffffffffffffffffffffffffffffffffffffff168152602001908152602001600020600089815260200190815260200160002060010154026116ba565b505b808060019003915050611f74565b60019150612806565b600b83141561249e575b6000811115612495576000600e6000600f60008881526020019081526020016000206001850381548110151561217757fe5b9060005260206000200160009054906101000a900473ffffffffffffffffffffffffffffffffffffffff1673ffffffffffffffffffffffffffffffffffffffff1673ffffffffffffffffffffffffffffffffffffffff1681526020019081526020016000206000868152602001908152602001600020600101541180156122af575060011515600e6000600f60008881526020019081526020016000206001850381548110151561222457fe5b9060005260206000200160009054906101000a900473ffffffffffffffffffffffffffffffffffffffff1673ffffffffffffffffffffffffffffffffffffffff1673ffffffffffffffffffffffffffffffffffffffff168152602001908152602001600020600086815260200190815260200160002060000160009054906101000a900460ff161515145b156124875761248530600f6000878152602001908152602001600020600184038154811015156122db57fe5b9060005260206000200160009054906101000a900473ffffffffffffffffffffffffffffffffffffffff1660126000888152602001908152602001600020546011600089815260200190815260200160002054600e6000600f60008c81526020019081526020016000206001890381548110151561235557fe5b9060005260206000200160009054906101000a900473ffffffffffffffffffffffffffffffffffffffff1673ffffffffffffffffffffffffffffffffffffffff1673ffffffffffffffffffffffffffffffffffffffff16815260200190815260200160002060008a815260200190815260200160002060010154028115156123d957fe5b04600e6000600f60008b81526020019081526020016000206001880381548110151561240157fe5b9060005260206000200160009054906101000a900473ffffffffffffffffffffffffffffffffffffffff1673ffffffffffffffffffffffffffffffffffffffff1673ffffffffffffffffffffffffffffffffffffffff168152602001908152602001600020600089815260200190815260200160002060010154016103e8026116ba565b505b808060019003915050612145565b60019150612806565b600a831415612801575b60008111156127f8576000600e6000600f6000888152602001908152602001600020600185038154811015156124da57fe5b9060005260206000200160009054906101000a900473ffffffffffffffffffffffffffffffffffffffff1673ffffffffffffffffffffffffffffffffffffffff1673ffffffffffffffffffffffffffffffffffffffff168152602001908152602001600020600086815260200190815260200160002060010154118015612612575060001515600e6000600f60008881526020019081526020016000206001850381548110151561258757fe5b9060005260206000200160009054906101000a900473ffffffffffffffffffffffffffffffffffffffff1673ffffffffffffffffffffffffffffffffffffffff1673ffffffffffffffffffffffffffffffffffffffff168152602001908152602001600020600086815260200190815260200160002060000160009054906101000a900460ff161515145b156127ea576127e830600f60008781526020019081526020016000206001840381548110151561263e57fe5b9060005260206000200160009054906101000a900473ffffffffffffffffffffffffffffffffffffffff1660116000888152602001908152602001600020546012600089815260200190815260200160002054600e6000600f60008c8152602001908152602001600020600189038154811015156126b857fe5b9060005260206000200160009054906101000a900473ffffffffffffffffffffffffffffffffffffffff1673ffffffffffffffffffffffffffffffffffffffff1673ffffffffffffffffffffffffffffffffffffffff16815260200190815260200160002060008a8152602001908152602001600020600101540281151561273c57fe5b04600e6000600f60008b81526020019081526020016000206001880381548110151561276457fe5b9060005260206000200160009054906101000a900473ffffffffffffffffffffffffffffffffffffffff1673ffffffffffffffffffffffffffffffffffffffff1673ffffffffffffffffffffffffffffffffffffffff168152602001908152602001600020600089815260200190815260200160002060010154016103e8026116ba565b505b8080600190039150506124a8565b60019150612806565b600191505b5092915050565b6000808211151561281d57600080fd5b6103e8820261282b33611be6565b1015151561283857600080fd5b42600a6000600d600088815260200190815260200160002060009054906101000a900473ffffffffffffffffffffffffffffffffffffffff1673ffffffffffffffffffffffffffffffffffffffff1673ffffffffffffffffffffffffffffffffffffffff1681526020019081526020016000206000600b600088815260200190815260200160002054815260200190815260200160002060050154101515156128e057600080fd5b42600a6000600d600088815260200190815260200160002060009054906101000a900473ffffffffffffffffffffffffffffffffffffffff1673ffffffffffffffffffffffffffffffffffffffff1673ffffffffffffffffffffffffffffffffffffffff1681526020019081526020016000206000600b6000888152602001908152602001600020548152602001908152602001600020600401541115151561298857600080fd5b600015156016600086815260200190815260200160002060000160009054906101000a900460ff1615151415156129be57600080fd5b6000600e60003373ffffffffffffffffffffffffffffffffffffffff1673ffffffffffffffffffffffffffffffffffffffff168152602001908152602001600020600086815260200190815260200160002060010154141515612a2057600080fd5b6001831480612a2f5750600083145b1515612a3a57600080fd5b612a4933306103e885026116ba565b5081600e60003373ffffffffffffffffffffffffffffffffffffffff1673ffffffffffffffffffffffffffffffffffffffff1681526020019081526020016000206000868152602001908152602001600020600101819055506000831415612b60576000600e60003373ffffffffffffffffffffffffffffffffffffffff1673ffffffffffffffffffffffffffffffffffffffff168152602001908152602001600020600086815260200190815260200160002060000160006101000a81548160ff0219169083151502179055508160116000868152602001908152602001600020600082825401925050819055506013600085815260200190815260200160002060008154809291906001019190505550612c1b565b6001831415612c1a576001600e60003373ffffffffffffffffffffffffffffffffffffffff1673ffffffffffffffffffffffffffffffffffffffff168152602001908152602001600020600086815260200190815260200160002060000160006101000a81548160ff02191690831515021790555081601260008681526020019081526020016000206000828254019250508190555060146000858152602001908152602001600020600081548092919060010191905055505b5b600f60008581526020019081526020016000203390806001815401808255809150509060018203906000526020600020016000909192909190916101000a81548173ffffffffffffffffffffffffffffffffffffffff021916908373ffffffffffffffffffffffffffffffffffffffff16021790555050601060003373ffffffffffffffffffffffffffffffffffffffff1673ffffffffffffffffffffffffffffffffffffffff16815260200190815260200160002084908060018154018082558091505090600182039060005260206000200160009091929091909150555060001515600960003373ffffffffffffffffffffffffffffffffffffffff1673ffffffffffffffffffffffffffffffffffffffff16815260200190815260200160002060009054906101000a900460ff1615151415612dad576001600960003373ffffffffffffffffffffffffffffffffffffffff1673ffffffffffffffffffffffffffffffffffffffff16815260200190815260200160002060006101000a81548160ff0219169083151502179055505b600190509392505050565b6000612dc930336103e834026116ba565b905090565b60008054600181600116156101000203166002900480601f016020809104026020016040519081016040528092919081815260200182805460018160011615610100020316600290048015612e645780601f10612e3957610100808354040283529160200191612e64565b820191906000526020600020905b815481529060010190602001808311612e4757829003601f168201915b505050505081565b600060016016600084815260200190815260200160002060000160006101000a81548160ff02191690831515021790555060019050919050565b600b6020528060005260406000206000915090505481565b60156020528160005260406000206020528060005260406000206000915091509054906101000a900460ff1681565b600081600460003373ffffffffffffffffffffffffffffffffffffffff1673ffffffffffffffffffffffffffffffffffffffff1681526020019081526020016000205410158015612f3e5750600082115b1515612f4957600080fd5b612f9b82600460003373ffffffffffffffffffffffffffffffffffffffff1673ffffffffffffffffffffffffffffffffffffffff16815260200190815260200160002054613c3290919063ffffffff16565b600460003373ffffffffffffffffffffffffffffffffffffffff1673ffffffffffffffffffffffffffffffffffffffff1681526020019081526020016000208190555061303082600460008673ffffffffffffffffffffffffffffffffffffffff1673ffffffffffffffffffffffffffffffffffffffff16815260200190815260200160002054613c5390919063ffffffff16565b600460008573ffffffffffffffffffffffffffffffffffffffff1673ffffffffffffffffffffffffffffffffffffffff168152602001908152602001600020819055507fddf252ad1be2c89b69c2b068fc378daa952ba7f163c4a11628f55a4df523b3ef338484604051808473ffffffffffffffffffffffffffffffffffffffff1673ffffffffffffffffffffffffffffffffffffffff1681526020018373ffffffffffffffffffffffffffffffffffffffff1673ffffffffffffffffffffffffffffffffffffffff168152602001828152602001935050505060405180910390a16001905092915050565b60096020528060005260406000206000915054906101000a900460ff1681565b600c6020528060005260406000206000915090505481565b6000600780549050905090565b600e602052816000526040600020602052806000526040600020600091509150508060000160009054906101000a900460ff16908060010154905082565b6000600560008473ffffffffffffffffffffffffffffffffffffffff1673ffffffffffffffffffffffffffffffffffffffff16815260200190815260200160002060008373ffffffffffffffffffffffffffffffffffffffff1673ffffffffffffffffffffffffffffffffffffffff16815260200190815260200160002054905092915050565b600060078281548110151561323757fe5b9060005260206000200160009054906101000a900473ffffffffffffffffffffffffffffffffffffffff169050919050565b60086020528060005260406000206000915054906101000a900460ff1681565b60065481565b6000806000600e60003373ffffffffffffffffffffffffffffffffffffffff1673ffffffffffffffffffffffffffffffffffffffff1681526020019081526020016000206000858152602001908152602001600020600101541115156132f457600080fd5b600015156016600085815260200190815260200160002060000160009054906101000a900460ff16151514151561332a57600080fd5b42600a6000600d600087815260200190815260200160002060009054906101000a900473ffffffffffffffffffffffffffffffffffffffff1673ffffffffffffffffffffffffffffffffffffffff1673ffffffffffffffffffffffffffffffffffffffff1681526020019081526020016000206000600b600087815260200190815260200160002054815260200190815260200160002060050154101515156133d257600080fd5b6001601560003373ffffffffffffffffffffffffffffffffffffffff1673ffffffffffffffffffffffffffffffffffffffff168152602001908152602001600020600085815260200190815260200160002060006101000a81548160ff021916908315150217905550600e60003373ffffffffffffffffffffffffffffffffffffffff1673ffffffffffffffffffffffffffffffffffffffff16815260200190815260200160002060008481526020019081526020016000206001015490506000600e60003373ffffffffffffffffffffffffffffffffffffffff1673ffffffffffffffffffffffffffffffffffffffff16815260200190815260200160002060008581526020019081526020016000206001018190555061350830336064605f6103e886020281151561350257fe5b046116ba565b5061355a30600d600086815260200190815260200160002060009054906101000a900473ffffffffffffffffffffffffffffffffffffffff16606460056103e886020281151561355457fe5b046116ba565b5060001515600e60003373ffffffffffffffffffffffffffffffffffffffff1673ffffffffffffffffffffffffffffffffffffffff168152602001908152602001600020600085815260200190815260200160002060000160009054906101000a900460ff1615151415613612578060116000858152602001908152602001600020600082825403925050819055506013600084815260200190815260200160002060008154809291906001900391905055506136c6565b60011515600e60003373ffffffffffffffffffffffffffffffffffffffff1673ffffffffffffffffffffffffffffffffffffffff168152602001908152602001600020600085815260200190815260200160002060000160009054906101000a900460ff16151514156136c5578060126000858152602001908152602001600020600082825401925050819055506014600084815260200190815260200160002060008154809291906001900391905055505b5b6001915050919050565b600042821180156136e357506078420383115b80156136ee57508282115b15156136f957600080fd5b60011515600860003373ffffffffffffffffffffffffffffffffffffffff1673ffffffffffffffffffffffffffffffffffffffff16815260200190815260200160002060009054906101000a900460ff16151514151561375857600080fd5b600660008154809291906001019190505550600c60003373ffffffffffffffffffffffffffffffffffffffff1673ffffffffffffffffffffffffffffffffffffffff16815260200190815260200160002060008154809291906001019190505550600654600a60003373ffffffffffffffffffffffffffffffffffffffff1673ffffffffffffffffffffffffffffffffffffffff1681526020019081526020016000206000600c60003373ffffffffffffffffffffffffffffffffffffffff1673ffffffffffffffffffffffffffffffffffffffff1681526020019081526020016000205481526020019081526020016000206000018190555085600a60003373ffffffffffffffffffffffffffffffffffffffff1673ffffffffffffffffffffffffffffffffffffffff1681526020019081526020016000206000600c60003373ffffffffffffffffffffffffffffffffffffffff1673ffffffffffffffffffffffffffffffffffffffff16815260200190815260200160002054815260200190815260200160002060010190805190602001906138f8929190613c74565b5084600a60003373ffffffffffffffffffffffffffffffffffffffff1673ffffffffffffffffffffffffffffffffffffffff1681526020019081526020016000206000600c60003373ffffffffffffffffffffffffffffffffffffffff1673ffffffffffffffffffffffffffffffffffffffff168152602001908152602001600020548152602001908152602001600020600201908051906020019061399f929190613c74565b5083600a60003373ffffffffffffffffffffffffffffffffffffffff1673ffffffffffffffffffffffffffffffffffffffff1681526020019081526020016000206000600c60003373ffffffffffffffffffffffffffffffffffffffff1673ffffffffffffffffffffffffffffffffffffffff16815260200190815260200160002054815260200190815260200160002060030160006101000a81548160ff02191690831515021790555082600a60003373ffffffffffffffffffffffffffffffffffffffff1673ffffffffffffffffffffffffffffffffffffffff1681526020019081526020016000206000600c60003373ffffffffffffffffffffffffffffffffffffffff1673ffffffffffffffffffffffffffffffffffffffff1681526020019081526020016000205481526020019081526020016000206004018190555081600a60003373ffffffffffffffffffffffffffffffffffffffff1673ffffffffffffffffffffffffffffffffffffffff1681526020019081526020016000206000600c60003373ffffffffffffffffffffffffffffffffffffffff1673ffffffffffffffffffffffffffffffffffffffff16815260200190815260200160002054815260200190815260200160002060050181905550600c60003373ffffffffffffffffffffffffffffffffffffffff1673ffffffffffffffffffffffffffffffffffffffff16815260200190815260200160002054600b600060065481526020019081526020016000208190555033600d6000600654815260200190815260200160002060006101000a81548173ffffffffffffffffffffffffffffffffffffffff021916908373ffffffffffffffffffffffffffffffffffffffff1602179055506001905095945050505050565b600080838311151515613c4457600080fd5b82840390508091505092915050565b6000808284019050838110151515613c6a57600080fd5b8091505092915050565b828054600181600116156101000203166002900490600052602060002090601f016020900481019282601f10613cb557805160ff1916838001178555613ce3565b82800160010185558215613ce3579182015b82811115613ce2578251825591602001919060010190613cc7565b5b509050613cf09190613cf4565b5090565b613d1691905b80821115613d12576000816000905550600101613cfa565b5090565b905600a165627a7a72305820c74c37f6cabd8721440d7b7aa9518fdfe96a2ab325f18f7c0a54777ae7b4aa700029",
  "source": "pragma solidity ^0.4.0;\nlibrary SafeMath \n{\n    function add(uint a, uint b) internal pure returns (uint) \n    {\n        uint c;\n        c = a + b;\n        require(c >= a);\n        return c;\n    }\n    \n    function sub(uint a, uint b) internal pure returns (uint) \n    {\n        require(b <= a);\n        uint c;\n        c = a - b;\n        return c;\n    }\n    \n    function mul(uint a, uint b) internal pure returns (uint) \n    {\n        uint c;\n        c = a * b;\n        require(a == 0 || c / a == b);\n        return c;\n    }\n    \n    function div(uint a, uint b) internal pure returns (uint) \n    {\n        require(b > 0);\n        uint c;\n        c = a / b;\n        return c;\n    }\n    \n}\n\ncontract High_low_2\n{\n    \n    using SafeMath for uint;\n    string public symbol;\n    string public  name;\n    uint8 public decimals;\n    uint public _totalSupply;\n    mapping(address => uint) balances;\n    mapping(address => mapping(address => uint)) allowed;\n    \n    \n    constructor() public payable\n    {\n        symbol = \"HLT\";\n        name = \"High Low Token\";\n        decimals = 18;\n        _totalSupply = 10000000 * 10**uint(decimals);\n        balances[this]= _totalSupply;\n    }\n\n    event Transfer(address indexed_from, address indexed_to, uint256 _value);\n    \n    event Approval(address indexed_owner, address indexed_spender, uint256 _value);\n    \n    function totalSupply() public constant returns (uint256) \n    {\n        return _totalSupply;\n    }\n\n    function balanceOf(address _owner) public constant returns (uint256) //arg1: account address  return: it holds token balance, convert this number using \"web3.fromWei(value, 'ether')\" this conversion and use the outcome result in front End\n    {\n        return balances[_owner];\n    }\n\n    function transfer(address _to, uint256 _value) public payable returns (bool) \n    {\n        require(balances[msg.sender] >= _value &&  _value > 0);\n        balances[msg.sender] = balances[msg.sender].sub(_value);//calling library\n        balances[_to] = balances[_to].add(_value);\n        emit Transfer(msg.sender, _to, _value);\n        return true;\n    }\n\n    function transferFrom(address _from, address _to, uint256 _value) public payable returns (bool) \n    {\n        require(balances[_from] >= _value && _value > 0);\n        balances[_from] = balances[_from].sub(_value);\n        balances[_to] = balances[_to].add(_value);\n        emit Transfer(_from, _to, _value);\n        return true;\n    }\n\n    function approve(address _spender, uint256 _value) public payable returns (bool) \n    {\n        allowed[msg.sender][_spender] = _value;\n        emit Approval(msg.sender, _spender, _value);\n        return true;\n    }\n\n    function allowance(address _owner, address _spender) public constant returns (uint256) \n    {\n        return allowed[_owner][_spender];\n    }\n    \n    \n    //high low functionalities start here\n    \n    event Transfer_amount(address _sender, address _receiver, uint256 _transfer_amount);\n    \n    function buy_token() public payable returns(bool) //retun: if it return \"true: tokens boughted successfully\" \"false: tokens not boughted\"\n    {\n        return transferFrom(this, msg.sender, msg.value*1000); \n    }\n    \n    function exchange_token(uint256 tokens_to_exchange_in_wei) public payable returns(bool) //arg1: web3.toWei(no.of.token to convert/1000 , 'ether')  return: if it return \"true: tokens successfully exchanged\" \"false: tokens not exchanged\"\n    {\n        transferFrom(msg.sender, this, tokens_to_exchange_in_wei*1000);\n        msg.sender.transfer(tokens_to_exchange_in_wei);\n        emit Transfer_amount(this, msg.sender, tokens_to_exchange_in_wei);\n        return true;\n    }\n    \n    function account_token_balance() public constant returns(uint256) //return: it returns the HLT token balance then it needs to be converted using \"web3.fromWei(result, 'ether')\" conversion in the UI.\n    {\n        return balanceOf(msg.sender);\n    }\n    /*\n    //this function is to know the ether balance of the contract \n    function contract_ether_balance() public constant returns(uint256)\n    {\n        return address(this).balance;\n    }\n    //this function is to know the token balance of the contract \n    function contract_token_balance() public constant returns(uint256)\n    {\n        return balanceOf(this);       \n    }\n    */\n    uint256 public _bet_id;\n    \n    address[] public broker_addresses;\n\n    mapping(address=>bool) public is_broker;\n    \n    mapping(address=>bool) public is_better;\n    \n    struct bet_details\n    {\n        uint256 bet_id;\n        string team_1;\n        string team_2;\n        bool team_selecetd;\n        uint256 start_time;\n        uint256 expiry_time;\n    }\n    mapping(address=>mapping(uint256=>bet_details)) public bet_details_map; // key 1: broker_address key2:broker_bets(iterate this)\n    \n    mapping(uint256=>uint256) public index_of_broker_bet;//key:bet_id  value: index_of_broker_bet(broker_created_bets)\n    \n    mapping(address=>uint256) public broker_created_bets;// total bet created by that particular broker (5)\n    \n    mapping(uint256=>address) public bet_creator;\n    \n    struct better\n    {\n        bool option;\n        uint256 betted_tokens;\n    }\n    mapping(address=>mapping(uint256=>better)) public game_id_map_better;//key: index  value:betting     \n    \n    mapping(uint256=>address[]) public betters_of_bet_id;\n    \n    mapping(address=>uint256[]) public better_betted_bets;\n    \n    mapping(uint256=>uint256) public bet_tokens_for_low;\n    \n    mapping(uint256=>uint256) public bet_tokens_for_high; \n    \n    mapping(uint256=>uint256) public low_betters;\n    \n    mapping(uint256=>uint256) public high_betters;\n\n    mapping(address=>mapping(uint256=>bool)) public is_exit;\n\n    function get_better_betted_bets_length() public constant returns(uint256) //return: it returns the \"better_betted_bets\" mapping length\n    {\n        return better_betted_bets[msg.sender].length;\n    }\n    \n    struct bet_status\n    {\n        bool is_bet_stopped;\n        bool is_result_published; //to check is_result_published\n        uint256 final_option; //10,11,12 \n    }\n    mapping(uint256=>bet_status) public bet_status_map; \n    \n    function add_broker() public payable returns(bool) //return true : \"if broker added successfully\"  false : \"if the broker is not added\"\n    {\n        require(!check_broker());\n        require(length_of_broker_addresses()<6);\n        broker_addresses.push(msg.sender);\n        is_broker[msg.sender]=true;\n        return true;\n    }\n    \n    function check_broker() public constant returns(bool) // return  true : \"if he is a broker\" false: \"if he is not the broker\"\n    {\n        return is_broker[msg.sender];\n    }\n    \n    function length_of_broker_addresses() public constant returns(uint256) // returns the length of \"broker_addresses\" mapping\n    {\n        return broker_addresses.length;\n    }\n    \n    function get_broker_address(uint256 index) public constant returns(address) //arg: index of \"broker_addresses\" mapping   return: address stored in that particular index\n    {\n        return broker_addresses[index]; //index start from 0\n    }\n    \n    function check_better() public constant returns(bool) //return: true: \"if he already betted\" false: \"new better\"\n    {\n        return is_better[msg.sender];    \n    }\n    \n    function broker_set_game(string _team_1, string _team_2, bool _team_selecetd, uint256 _start_time, uint256 _expiry_time) public payable returns(bool) // arg1: \"team 1\", arg2: \"team 2\", arg3: if the selected team is team1 pass \"\" ||if the selected team is team2 pass \"true\", arg4:start time (in Unix epoch time) ,arg5: expiry time (in Unix epoch time)\n    {\n        require(_expiry_time>now && _start_time>(now-2 minutes) && _expiry_time>_start_time);\n        require(is_broker[msg.sender]==true);\n        _bet_id++;\n        broker_created_bets[msg.sender]++;\n        bet_details_map[msg.sender][broker_created_bets[msg.sender]].bet_id=_bet_id;\n        bet_details_map[msg.sender][broker_created_bets[msg.sender]].team_1=_team_1;\n        bet_details_map[msg.sender][broker_created_bets[msg.sender]].team_2=_team_2;\n        bet_details_map[msg.sender][broker_created_bets[msg.sender]].team_selecetd=_team_selecetd;\n        bet_details_map[msg.sender][broker_created_bets[msg.sender]].start_time=_start_time;\n        bet_details_map[msg.sender][broker_created_bets[msg.sender]].expiry_time=_expiry_time;\n        index_of_broker_bet[_bet_id]=broker_created_bets[msg.sender];\n        bet_creator[_bet_id]=msg.sender;\n        return true;\n    }\n    \n    function betting(uint256 bet_id,uint256 _choice,uint256 _bet_tokens_in_wei) public payable returns(bool) // arg1: \"bet id of that particular bet\", arg2: if loss selected '0' || if win selected '1', arg3: web3.toWei(no.of.tokens.to.bet*0.001, 'ether')   return : 'true' if betting successfull , 'false' if betting not successfull\n    {\n        require(_bet_tokens_in_wei>0);\n        require(balanceOf(msg.sender)>=_bet_tokens_in_wei*1000);\n        require(bet_details_map[bet_creator[bet_id]][index_of_broker_bet[bet_id]].expiry_time>=now);\n        require(bet_details_map[bet_creator[bet_id]][index_of_broker_bet[bet_id]].start_time<=now);\n        require(bet_status_map[bet_id].is_bet_stopped==false);\n        require(game_id_map_better[msg.sender][bet_id].betted_tokens==0);\n        require(_choice==1||_choice==0);\n        \n        transferFrom(msg.sender, this, _bet_tokens_in_wei*1000);\n        game_id_map_better[msg.sender][bet_id].betted_tokens=_bet_tokens_in_wei;\n        \n        if(_choice==0)\n        {\n            game_id_map_better[msg.sender][bet_id].option=false;\n            bet_tokens_for_low[bet_id]+=_bet_tokens_in_wei;\n            low_betters[bet_id]++;\n        }\n        else if(_choice==1)\n        {\n            game_id_map_better[msg.sender][bet_id].option=true;\n            bet_tokens_for_high[bet_id]+=_bet_tokens_in_wei;\n            high_betters[bet_id]++;\n        }\n        \n        betters_of_bet_id[bet_id].push(msg.sender);\n        \n        better_betted_bets[msg.sender].push(bet_id);\n        if(is_better[msg.sender]==false)\n        is_better[msg.sender]=true;//added as a user\n        \n        return true;\n    }\n    \n    function broker_stop_bet(uint256 bet_id) public payable returns(bool) //arg1: \"bet id\" return :'true' if the bet successfully stopped, 'false' if the bet is not stopped\n    {\n        bet_status_map[bet_id].is_bet_stopped=true;\n        return true;\n    }\n    \n    function better_increase_bet_tokens(uint256 bet_id,uint256 _increase_tokens_in_wei) public payable returns(bool)// arg1: \"bet id\", arg2: \"web3.toWei(no.of.tokens.to.increase*0.001, 'ether')\"  return: 'true' if bet increased successfully 'false' if bet can't be increased \n    {\n        require(game_id_map_better[msg.sender][bet_id].betted_tokens>0);\n        require(bet_status_map[bet_id].is_bet_stopped==false);\n        require(bet_details_map[bet_creator[bet_id]][index_of_broker_bet[bet_id]].expiry_time>=now);\n        require(balanceOf(msg.sender)>=_increase_tokens_in_wei*1000);\n        transferFrom(msg.sender,this,_increase_tokens_in_wei*1000);\n        game_id_map_better[msg.sender][bet_id].betted_tokens+=_increase_tokens_in_wei;\n        \n        if(game_id_map_better[msg.sender][bet_id].option==false)\n            bet_tokens_for_low[bet_id]+=_increase_tokens_in_wei;\n        else if(game_id_map_better[msg.sender][bet_id].option==true)\n            bet_tokens_for_high[bet_id]+=_increase_tokens_in_wei;\n        \n        return true;\n    }\n    \n    function better_exit_bet(uint256 bet_id) public payable returns(bool) // arg: \"bet id\" return: \"true\" if he exit from the bet, \"false\" if he can't exit\n    {\n        require(game_id_map_better[msg.sender][bet_id].betted_tokens>0);\n        require(bet_status_map[bet_id].is_bet_stopped==false);\n        require(bet_details_map[bet_creator[bet_id]][index_of_broker_bet[bet_id]].expiry_time>=now);\n        is_exit[msg.sender][bet_id]=true;\n        uint256 tokens_betted=game_id_map_better[msg.sender][bet_id].betted_tokens;\n        game_id_map_better[msg.sender][bet_id].betted_tokens=0;\n        transferFrom(this, msg.sender, (tokens_betted*1000*95)/100);\n        transferFrom(this, bet_creator[bet_id], (tokens_betted*1000*5)/100);\n        \n        if(game_id_map_better[msg.sender][bet_id].option==false)\n        {\n            bet_tokens_for_low[bet_id]-=tokens_betted;\n            low_betters[bet_id]--;\n        }\n        else if(game_id_map_better[msg.sender][bet_id].option==true)\n        {\n            bet_tokens_for_high[bet_id]+=tokens_betted;\n            high_betters[bet_id]--;\n        }\n        return true;    \n    }\n    function broker_setting_result_and_distribute_money(uint256 bet_id,uint256 result_options) public payable returns(bool) // arg1: bet id, arg2: result ('10' - if the result needs to be set as loss, '11' -win , '12' -draw )   return : \"true\" - if the bet result setted and prize tokens distributed successfully \"false\" - if the bet result and prize distribution is not successfull\n    {\n        require(bet_creator[bet_id]==msg.sender);\n        require(bet_details_map[bet_creator[bet_id]][index_of_broker_bet[bet_id]].expiry_time<=now);\n        require(bet_status_map[bet_id].is_result_published==false);\n        require(result_options<=12 && result_options>=10);  //10 ==low  11==high  12==draw\n        \n        \n        bet_status_map[bet_id].is_result_published=true;\n        bet_status_map[bet_id].final_option=result_options;\n        //bool result_option;\n        \n        uint256 count = betters_of_bet_id[bet_id].length;\n        \n        if(result_options==12)\n        {\n            //draw\n            while(count>0)\n            {\n                if(game_id_map_better[betters_of_bet_id[bet_id][count-1]][bet_id].betted_tokens>0)\n                {\n                    transferFrom(this, betters_of_bet_id[bet_id][count-1], game_id_map_better[betters_of_bet_id[bet_id][count-1]][bet_id].betted_tokens*1000);\n                }\n                count--;\n            }\n            return true;\n        }\n        else if(result_options==11)\n        {\n            //high setted as result \n            \n            //uint256 low_high_ratio = ; \n            while(count>0)\n            {\n                if(game_id_map_better[betters_of_bet_id[bet_id][count-1]][bet_id].betted_tokens>0 && game_id_map_better[betters_of_bet_id[bet_id][count-1]][bet_id].option==true)\n                {\n                    //betted tokens:   game_id_map_better[betters_of_bet_id[bet_id][count-1]][bet_id].betted_tokens\n                    //low bet token:   bet_tokens_for_low[bet_id]\n                    //high bet tokens: bet_tokens_for_high[bet_id]\n                    //(game_id_map_better[betters_of_bet_id[bet_id][count-1]][bet_id].betted_tokens*bet_tokens_for_low[bet_id])\n                    //((game_id_map_better[betters_of_bet_id[bet_id][count-1]][bet_id].betted_tokens*bet_tokens_for_low[bet_id])/bet_tokens_for_high[bet_id])\n                    //(game_id_map_better[betters_of_bet_id[bet_id][count-1]][bet_id].betted_tokens+((game_id_map_better[betters_of_bet_id[bet_id][count-1]][bet_id].betted_tokens*bet_tokens_for_low[bet_id])/bet_tokens_for_high[bet_id]))\n                    //(1000*(game_id_map_better[betters_of_bet_id[bet_id][count-1]][bet_id].betted_tokens+((game_id_map_better[betters_of_bet_id[bet_id][count-1]][bet_id].betted_tokens*bet_tokens_for_low[bet_id])/bet_tokens_for_high[bet_id])))\n                    transferFrom(this, betters_of_bet_id[bet_id][count-1], (1000*(game_id_map_better[betters_of_bet_id[bet_id][count-1]][bet_id].betted_tokens+((game_id_map_better[betters_of_bet_id[bet_id][count-1]][bet_id].betted_tokens*bet_tokens_for_low[bet_id])/bet_tokens_for_high[bet_id]))));\n                    //game_id_map_better[betters_of_bet_id[bet_id][count-1]][bet_id].tokens_won=((game_id_map_better[betters_of_bet_id[bet_id][count-1]][bet_id].betted_tokens*bet_tokens_for_low[bet_id])/bet_tokens_for_high[bet_id]);\n                }\n                count--;\n            }\n            return true;\n        }\n        \n        else if(result_options==10)\n        {\n            //low setted as result \n            \n            while(count>0)\n            {\n                if(game_id_map_better[betters_of_bet_id[bet_id][count-1]][bet_id].betted_tokens>0 && game_id_map_better[betters_of_bet_id[bet_id][count-1]][bet_id].option==false)\n                {\n                    //betted tokens:   game_id_map_better[betters_of_bet_id[bet_id][count-1]][bet_id].betted_tokens\n                    //low bet token:   bet_tokens_for_low[bet_id]\n                    //high bet tokens: bet_tokens_for_high[bet_id]\n                    //(game_id_map_better[betters_of_bet_id[bet_id][count-1]][bet_id].betted_tokens*bet_tokens_for_high[bet_id])\n                    //((game_id_map_better[betters_of_bet_id[bet_id][count-1]][bet_id].betted_tokens*bet_tokens_for_high[bet_id])/bet_tokens_for_low[bet_id])\n                    //(game_id_map_better[betters_of_bet_id[bet_id][count-1]][bet_id].betted_tokens+((game_id_map_better[betters_of_bet_id[bet_id][count-1]][bet_id].betted_tokens*bet_tokens_for_high[bet_id])/bet_tokens_for_low[bet_id]))\n                    transferFrom(this, betters_of_bet_id[bet_id][count-1], (1000*(game_id_map_better[betters_of_bet_id[bet_id][count-1]][bet_id].betted_tokens+((game_id_map_better[betters_of_bet_id[bet_id][count-1]][bet_id].betted_tokens*bet_tokens_for_high[bet_id])/bet_tokens_for_low[bet_id])))); \n                    //game_id_map_better[betters_of_bet_id[bet_id][count-1]][bet_id].tokens_won=((game_id_map_better[betters_of_bet_id[bet_id][count-1]][bet_id].betted_tokens*bet_tokens_for_high[bet_id])/bet_tokens_for_low[bet_id]);\n                }\n                count--;\n            }\n            return true;\n        }\n        return true;\n    }\n}",
  "sourcePath": "/home/mnwsoftware/projects/solidity/High-Low-V2/contracts/High_low_2.sol",
  "compiler": {
    "name": "solc",
    "version": "0.4.23+commit.124ca40d.Emscripten.clang"
  },
  "schemaVersion": "2.0.0",
  "updatedAt": "2018-05-12T10:39:54.655Z"
}